:100000000C94D6170C9407180C9407180C94071826
:100010000C9407180C9407180C9407180C940718E4
:100020000C9407180C9407180C9407180C940718D4
:100030000C9407180C9407180C9407180C940718C4
:100040000C9407180C94C9E80C9407180C94071822
:100050000C9407180C9407180C94C4D60C9467C51C
:100060000C9407180C94D88B0C94CE8B0C94071816
:100070000C9407180C9407180C9407180C94071884
:100080000C94493E0C9407180C9407180C9407180C
:100090000C9407180C9407180C9407180C94071864
:1000A0000C9407180C9407180C941B3E0C9407181A
:1000B0000C9407180C9407180C9407180C94071844
:1000C0000C9407180C9407180C9407180C94AB4563
:1000D0000C9475450C9407180C9407180C94071889
:1000E0000C940718084AD73B3BCE016E84BCBFFD79
:1000F000C12F3D6C74319ABD56833DDA3D00C77FF8
:1001000011BED9E4BB4C3E916BAAAABE0000008090
:100110003F05A84CCDB2D44EB93836A9020C50B91F
:10012000918688083CA6AAAA2ABE000000803F0744
:10013000634236B79BD8A71A39685618AEBAAB5582
:100140008C1D3CB7CC5763BD6DEDFD753EF6177247
:1001500031BF000000803F08000000BE9224491219
:100160003EABAAAA2ABECDCCCC4C3E00000080BE3D
:10017000ABAAAAAA3E00000000BF000000803F001A
:1001800000000000084178D3BB4387D1133D190E0E
:100190003CC3BD4282AD2B3E68EC8276BED98FE176
:1001A000A93E4C80EFFFBE01C4FF7F3F000000006E
:1001B00000000C94451C0C9451760C941C420C9439
:1001C000B0C30C94B1C20C94921C0C94BFC20C949A
:1001D000A6C30C94BAC30C941B1C0C94A82A0C94B0
:1001E0009CC20C945E2A0C941B1D0C94EDA60C94DE
:1001F000FD440C94C3C20C949CC30C942DC30C946A
:10020000E7410C94D0400C945BC30C94DBFB0C9442
:1002100053C30C94BBC20C9489410C948F400C9432
:10022000CDC20C94D9400C94AC410C94A8C20C944F
:1002300088C30C94F82C0C9437C30C944C440C9445
:100240006B280C9487290C9441C30C94A0C20C9485
:100250009E440C9412440C9435A60C944EA80C9415
:1002600079C30C9411450C94291C0C94C83E0C9431
:10027000C9C20C94DBC20C9428C30C94D1C20C9458
:10028000E8A60C94D2330C94D7C20C9420C30C94DF
:10029000F4440C9416760C948AC20C9441430C944A
:1002A0002EA60C9441410C94F4480D94C6030C9472
:1002B0006E420C9485C20C944BC30C946FC30C9487
:1002C00077420C94E4470C9465C30C9480440C94DE
:1002D0001F8C0C9439A80C94242D0C943EA80C94DB
:1002E000CB760C9492C30C94CB430C94A42A0C941C
:1002F000501C0C942C440C94ABC20C9457450C9499
:1003000024450C94B5C20C94A4C20C94BC440C9427
:10031000E31C0C94FE1B4E414E494E495459494E24
:1003200046CDCCCC3D0AD7233C17B7D13877CC2B60
:10033000329595E6241FB14F0A000020410000C805
:100340004200401C4620BCBE4CCA1B0E5AAEC59D86
:10035000744D32310020410020430050726F7465AB
:10036000637465642050696E0A00726F7461746909
:100370006F6E206D61747269783A0A005A5F6D6F12
:1003800076655F636F6D700A00256C642E25696D5C
:10039000004D61726C696E20322E302E372E320085
:1003A000417869732000206D696E3A00206D617894
:1003B0003A00416363656C65726174696F6E206CAD
:1003C000696D697465642E0A004641535400534CAC
:1003D0004F5700434F4D4D554E49434154494F4EA1
:1003E0000044525952554E004552524F5253004903
:1003F0004E464F004543484F004572726F7220775A
:10040000726974696E6720746F20454550524F4D74
:10041000210A004D343130004D313132004D313040
:1004200038004E6F20436865636B73756D20776984
:100430007468206C696E65206E756D6265722C2023
:100440004C617374204C696E653A20006368656383
:100450006B73756D206D69736D617463682C204CCE
:10046000617374204C696E653A20004C696E65209A
:100470004E756D626572206973206E6F74204C61D9
:100480007374204C696E65204E756D6265722B31F8
:100490002C204C617374204C696E653A20004D31FC
:1004A00031300053442072656164206572726F724E
:1004B0000A002121204B494C4C206361757365640F
:1004C00020627920746F6F206D75636820696E619A
:1004D00063746976652074696D65202D206375727B
:1004E00072656E7420636F6D6D616E643A20006298
:1004F0007573793A2070617573656420666F722038
:10050000696E7075740A00627573793A207061754E
:1005100073656420666F7220757365720A00627578
:1005200073793A2070726F63657373696E670A003E
:1005300053442063617264206572726F72004E4F83
:1005400054494345004D6564696120496E73657285
:10055000746564004D656469612052656D6F7665F0
:1005600064004D36303000506C6561736520526513
:10057000736574005052494E5445522048414C54C2
:100580004544004B494C4C45442E20005072696E46
:100590007465722068616C7465642E206B696C6C84
:1005A00028292063616C6C6564210A006563686FAB
:1005B0003A004572726F723A0020204D3432312079
:1005C0004900202047323920493939390A0061630E
:1005D000746976650A002053797374656D207631ED
:1005E0002E303120002020207C0A004E414E002079
:1005F000202E20202000207C004C43443A0A004357
:1006000053563A0A0020666F7220003A0A0A000A1E
:1006100042656420546F706F677261706879205210
:1006200065706F72740050726F62696E6720466108
:10063000696C65640A0050726F62696E672046617A
:10064000696C65640047323800446F6E652E0A009D
:100650003F496E76616C69642073746F726167657F
:1006600020736C6F742E0A3F557365203020746FB1
:1006700020003F454550524F4D2073746F726167A3
:1006800065206E6F7420617661696C61626C652EA5
:100690000A003F5034206973206F6E6C79206176B8
:1006A00061696C61626C65207768656E20616E209F
:1006B0004C43442069732070726573656E742E0A12
:1006C000003F5032206973206F6E6C792061766133
:1006D000696C61626C65207768656E20616E204C84
:1006E00043442069732070726573656E742E0A002E
:1006F00050726F62696E672061726F756E64202838
:10070000004D65736820696E76616C69646174651B
:10071000642E2050726F62696E67206D6573682E5B
:100720000A004D657368207A65726F65642E0A0051
:1007300044656661756C742073746F7261676520BF
:10074000736C6F7420302073656C65637465642E00
:100750000A004C6F6164696E6720746573745F7022
:1007600061747465726E2076616C7565732E0A0A09
:1007700000496E76616C696420746573745F7061A2
:10078000747465726E2076616C75652E20282D312B
:1007900020746F2032290A0A004C6F636174696FFC
:1007A0006E7320696E76616C6964617465642E0A8B
:1007B0000A00456E74697265204D65736820696E24
:1007C00076616C6964617465642E0A0A0053746111
:1007D0006E6461726420446576696174696F6E3A13
:1007E00020004D65616E204D65736820486569671E
:1007F00068743A200023206F662073616D706C6509
:10080000733A200050726F62696E6720506F696E94
:1008100074000A50726F62696E67206D657368209C
:10082000706F696E742000496E76616C6964206D2A
:10083000617020747970652E0A0A003F284629618C
:1008400064652068656967687420666F7220426518
:1008500064204C6576656C20436F727265637469C1
:100860006F6E206E6F7420706C61757369626C6559
:100870002E0A0A003F43616E277420616374697613
:1008800061746520616E642064656163746976617A
:100890007465206174207468652073616D652074CF
:1008A000696D652E0A0A00426F7468205820262060
:1008B00059206C6F636174696F6E73206D7573740A
:1008C000206265207370656369666965642E0A0A33
:1008D000003F496E76616C696420677269642073B9
:1008E000697A6520284A292073706563696669659D
:1008F000642028322D39292E0A0A003F2850296801
:100900006173652076616C756520696E76616C69CE
:10091000642028302D36292E0A0A003F28562965E2
:1009200072626F7365206C6576656C20696D706CA2
:1009300061757369626C652028302D34292E0A0A8E
:10094000003F285229657065746974696F6E206371
:100950006F756E7420696E76616C69642028312B26
:10096000292E0A0A005D0A0062656420706C616EBF
:1009700065206E6F726D616C203D205B00436F756A
:100980006C64206E6F7420636F6D706C657465208D
:100990004C53462100436F727265637465645F5AFD
:1009A0003D0025532025692F25690054696C746921
:1009B0006E67206D65736820706F696E7420003FEC
:1009C0004572726F722070726F62696E6720706F0D
:1009D000696E742E2041626F7274696E67206F7049
:1009E00065726174696F6E2E0A00255320332F33B0
:1009F0000054696C74696E67206D657368202833D4
:100A00002F33290A00255320322F330054696C7488
:100A1000696E67206D6573682028322F33290A00BC
:100A200054696C74696E6720506F696E7400255349
:100A300020312F330054696C74696E67206D6573C3
:100A4000682028312F33290A00646F6E650A004937
:100A50006E73756666696369656E7420646174613E
:100A60000A004578747261706F6C6174696E6720FA
:100A70006D6573682E2E2E0053544F505045442EF2
:100A800020005072696E7465722073746F707065A7
:100A9000642064756520746F206572726F72732EA6
:100AA0002046697820746865206572726F722061D3
:100AB0006E6420757365204D39393920746F20724A
:100AC0006573746172742E202854656D706572614F
:100AD000747572652069732072657365742E205376
:100AE0006574206974206166746572207265737420
:100AF000617274696E67290A0021212053544F5096
:100B00002063616C6C656420626563617573652048
:100B10006F6620424C546F756368206572726F7205
:100B2000202D207265737461727420776974682057
:100B30004D3939390A00486F74656E6420746F6FDF
:100B400020636F6C640A004F46460A004661646584
:100B5000204865696768742000426564204C6576AA
:100B6000656C696E6720004661696C656420746F0E
:100B700020656E61626C6520426564204C65766517
:100B80006C696E670A00496E76616C6964206D65F8
:100B900073682E0A0076616C69640A53746F72611F
:100BA000676520736C6F743A20004D657368206927
:100BB0007320003F496E76616C69642073746F72B4
:100BC00061676520736C6F742E0A004C6F6164203E
:100BD00046696C616D656E7400496E736572742050
:100BE00066696C616D656E7420616E6420707265FB
:100BF000737320627574746F6E0A00526568656164
:100C0000742066696E69736865642E005265686554
:100C10006174696E672E2E2E0048656174657220BE
:100C200054696D656F7574005072657373206275D9
:100C300074746F6E20746F2068656174206E6F7AB3
:100C40007A6C650A004E6F7A7A6C65205061726B1F
:100C500065640020496E76616C6964206578747201
:100C6000756465722000536C6565702E2E2E005AD7
:100C70002050726F62652050617374204265640A6F
:100C8000005A2050726F6265205061737420426573
:100C90006400205A3A200020593A2000426564201E
:100CA000583A20004D65736820706F696E74206F2C
:100CB0007574206F662072616E67650A00436C6907
:100CC000636B20746F20526573756D652E2E2E0038
:100CD0004E6F204D6F76652E00456E642066696C00
:100CE00065206C6973740A00426567696E206669E5
:100CF0006C65206C6973740A004E6F206D656469C1
:100D0000610A00286E6F2066696C65290043757260
:100D100072656E742066696C653A200053442070D9
:100D200072696E74696E67206279746520004E6F17
:100D300074205344207072696E74696E670A0044AF
:100D4000656C6574696F6E206661696C65642C20E2
:100D500046696C653A200046696C652064656C657F
:100D60007465643A005072696E742074696D653AF6
:100D700020000A53746174733A2046696C616D6592
:100D80006E7420757365643A20002C204C6F6E677A
:100D9000657374206A6F623A2000546F74616C202E
:100DA00074696D653A200053746174733A20002CA5
:100DB000204661696C65643A20002C2046696E69A2
:100DC000736865643A20005072696E74733A20004B
:100DD00045202553006F66660044454255473A005A
:100DE0004D3131322053687574646F776E004D3128
:100DF000313320530044722E204861636B2D4E2DF9
:100E0000536E69666620352B204F46462E004348B8
:100E1000414D4245525F54454D5045524154555203
:100E20004500424142595354455050494E470041B4
:100E3000524353004D4F54494F4E5F4D4F4445531D
:100E400000544845524D414C5F50524F5445435415
:100E5000494F4E004C4F4E475F46494C454E414D21
:100E600045004155544F5245504F52545F53445FD3
:100E7000535441545553005344434152440050523B
:100E80004F4D50545F535550504F525400454D45AF
:100E90005247454E43595F504152534552004341DA
:100EA00053455F4C494748545F4252494748544E66
:100EB00045535300544F47474C455F4C49474854AE
:100EC0005300534F4654574152455F504F57455278
:100ED000004255494C445F50455243454E54004CE6
:100EE0004556454C494E475F44415441005A5F5076
:100EF000524F42450052554E4F5554004155544FA4
:100F00004C4556454C005052494E545F4A4F4200A2
:100F100050524F4752455353004155544F5245503C
:100F20004F52545F54454D5000564F4C554D45540B
:100F300052494300454550524F4D0042494E41529F
:100F4000595F46494C455F5452414E534645520005
:100F500053455249414C5F584F4E5F584F464600EB
:100F60004649524D574152455F4E414D453A4D61BC
:100F7000726C696E20322E302E372E3220284D6151
:100F80007220203620323032312031373A31363A31
:100F900032302920534F555243455F434F44455FFC
:100FA00055524C3A68747470733A2F2F676974689D
:100FB00075622E636F6D2F4D61726C696E4669723A
:100FC0006D776172652F4D61726C696E2050524F62
:100FD000544F434F4C5F56455253494F4E3A312E72
:100FE00030204D414348494E455F545950453A449D
:100FF000722E204861636B2D4E2D536E69666620FC
:10100000352B2045585452554445525F434F554E59
:10101000543A3120555549443A386364323736657D
:10102000362D343163372D343433392D38663465F9
:101030002D6631383835333765626461630A002FB5
:101040002F2000416363656C65726174696F6E3A4D
:101050002050003F4A206F7574206F662072616EC9
:1010600067652028302E303120746F20302E3329D0
:101070000A0020204D61783A200020204D696E3A08
:101080002000536F667420656E6473746F70733ADA
:10109000200046523A0020466C6F773A20002053D9
:1010A0006572766F200020643A0020693A00207053
:1010B0003A00496E76616C69642065787472756473
:1010C00065720A006469730043290A0061626C65F5
:1010D0006420286D696E2074656D702000436F6C0C
:1010E0006420657874727564657320617265200090
:1010F00046696C616D656E742072756E6F757420D3
:10110000004D34323120696E636F727265637420F2
:10111000706172616D657465722075736167650ACF
:10112000004F666673657473204170706C69656406
:10113000004572723A20546F6F206661722100542C
:101140006F6F206661722066726F6D2072656665D2
:1011500072656E636520706F696E740A0045455054
:10116000524F4D204F4B0A002028302D313029009E
:101170002076616C7565206F7574206F66207261D2
:101180006E676500416476616E6365204B3D004D7E
:10119000383458594500446F6E65207072696E741A
:1011A000696E672066696C650A004D3737004D33FC
:1011B00031004361703A0047322F47332062616447
:1011C00020706172616D65746572730A003F5A2008
:1011D0006F7574206F662072616E67652028003F0E
:1011E00059206F7574206F662072616E67652028C4
:1011F0002D003F58206F7574206F662072616E67F6
:101200006520282D0050726F6265204F66667365F9
:1012100074205800656E7175657565696E6720226A
:10122000006F6B00526573656E643A200025697922
:1012300020256964202569682025696D202569734A
:101240000042656420436F6F6C696E672E2E2E001E
:101250004265642048656174696E672E2E2E0050C9
:101260004944204175746F74756E65206661696CC0
:1012700065642120426164206578747275646572CA
:10128000206E756D6265720A0023646566696E651D
:101290002044454641554C545F00504944207475E4
:1012A0006E696E6720646F6E65004175746F74754A
:1012B0006E65206661696C6564212054696D656F97
:1012C00075742E004175746F74756E652066616962
:1012D0006C65642E2054656D7065726174757265FD
:1012E00020746F6F20686967682E004175746F7491
:1012F000756E65206661696C65642E2042616420AC
:1013000065787472756465722E004B6420004B69B9
:1013100020004B702000504944204175746F747553
:101320006E652066696E6973686564212050757406
:1013300020746865206C617374204B702C204B699D
:1013400020616E64204B6420636F6E7374616E74F1
:10135000732066726F6D2062656C6F7720696E74A2
:101360006F20436F6E66696775726174696F6E2E68
:10137000680A00504944204175746F74756E652089
:101380006661696C6564212074696D656F75740AA6
:1013900000504944204175746F74756E6520666114
:1013A000696C6564212054656D7065726174757235
:1013B0006520746F6F20686967680A00204B643A83
:1013C0002000204B693A2000204B703A20000A2070
:1013D000436C617373696320504944200A002054B0
:1013E000753A2000204B753A2000206D61783A2034
:1013F00000206D696E3A200020643A200020626966
:1014000061733A2000504944204175746F74756EC1
:10141000652073746172740A0050494420417574E8
:101420006F74756E6500506C6561736520636F6ED7
:101430006669726D2E0025750041626F7274696E67
:10144000672E2E2E004E6F204D656469610043614A
:101450006E6E6F7420656E74657220737562646958
:10146000723A200066726F6D2053442043617264AB
:101470003F005072696E742066696C65004D3235AC
:101480000041626F7274207072696E74696E6700D9
:101490005072696E742041626F72746564002573C6
:1014A0002563004739300047302046256400473027
:1014B000202563257325642E25303264204625645B
:1014C00000473931004D3137004D3138004D35304E
:1014D00031004D3530320A4D35303000486F6D697E
:1014E0006E67204661696C6564006F70656E0054BC
:1014F00052494747455245440066696C616D656EC7
:1015000074007A5F6D696E00795F6D617800785F55
:101510006D6178005265706F7274696E6720656ED8
:101520006473746F70207374617475730A00486F0C
:101530006D652025732573257320466972737400C9
:101540005761726E696E673A20486F6D696E6720E9
:1015500042756D702044697669736F72203C20314A
:101560000A00363726033C3D380E2E303E121A1C38
:10157000180AFF430907084400010600000701009C
:101580000500070100070600000007000500003203
:1015900020324032603280320000043106310000D7
:1015A0009030923000000231003100002031000004
:1015B0001031123114310000903004310631000036
:1015C000603062308030823000311031123114319D
:1015D00000310231043100006030623080308230EE
:1015E0000000000000300000891584157F157A1571
:1015F0000000704156558F42565500430000394354
:10160000ABAA7143AB2A95430080B14300007041FF
:1016100056558B42ABAAF84200003343ABAA69434C
:10162000AB2A90430080AB43F403EF03E803E103EC
:10163000D30301200000028F4000000020000002C0
:1016400089410000032000000241410000102000F9
:101650000002D23300000220000002A42A00000091
:1016600021000002CB7600000221000002CB7600B0
:10167000000421000002CB7600002021000002CBF4
:1016800076000030210000025176000000240000A6
:1016900002F448000000309803100000C83E2030DB
:1016A00000002000006E42603000000200004C4448
:1016B00062300000026B28F4449030000002E31C0A
:1016C000BC442031E2050200002C4410210000023D
:1016D000872900001022E01002291C00001033E0CE
:1016E00010020000FD440037E31002921C1C42026D
:1016F00037E71002921C1C420437EB1002921C1CAC
:101700004210240000021676000080303E070200DE
:1017100000124482304207025E2ABC441C22420767
:1017200002291C00001C334207020000FD44003166
:10173000F009021B1D57450022F00902451C00005C
:101740000033F0090200001145A233F109021B1D0C
:1017500057450222F10902451C00000233F109023B
:101760000000114502310E02021B1CBC4410315D09
:10177000020200002C44123161020200002C4414C9
:101780003165020200002C440431000002000024F4
:1017900045063100000A0000CB4360310000200004
:1017A00000E74180310000100000AC4100365110CC
:1017B00002242D9E440436551002242D9E440836E2
:1017C000591002242D9E4410365D1002F82C9E44C0
:1017D0002020000002A82A000022200000021F8C06
:1017E00000002420000002D9400000003200002048
:1017F0000000774220320000200000774240320093
:101800000020000077426032000020000077428014
:1018100032000020000077422620000002414300F1
:10182000002820000002E44700004020000002D011
:10183000400000A032D90602501C80440011000074
:10184000200000C83E40110000200000C83E80116A
:101850000000200000C83EC0110000200000C83E6B
:1018600000000000020000000000E4150AE2151468
:10187000D8151EC01520B81528B0152AAC152CA6F1
:10188000152EA015349A15328E150000000000B7F1
:10189000430080B843000000000000B4420000B4E0
:1018A00042000070410202040000A0400000A0407D
:1018B000000080400000B3430000B9430080CA43E9
:1018C0000101FF0000000100000001000080005540
:1018D0005555000000400033333300AAAA2A0049BE
:1018E00092240000002000C7711C0099991900D1B2
:1018F000451700555515003BB1130024491200113E
:10190000111100000010000F0F0F00E3380E00430C
:10191000790D00CCCC0C00C3300C00E8A20B0064A5
:10192000210B00AAAA0A00703D0A009DD8090042B6
:101930007B090092240900DCD30800888808001085
:1019400042080000000800F0C10700878707007503
:10195000500700711C07003EEB0600A1BC060069A1
:1019600090060066660600703E06006118060017C5
:10197000F4050074D105005BB00500B2900500626B
:101980007205005555050078390500B81E0500059B
:101990000505004EEC040087D40400A1BD040090AE
:1019A000A7040049920400C17D0400EE690400C749
:1019B000560400444404005C320400082104004141
:1019C000100400000004003FF00300F8E0030026CC
:1019D000D20300C3C30300CCB503003AA803000A36
:1019E0009B0300388E0300C08103009F750300D065
:1019F000690300505E03001D530300344803009147
:101A00003D03003333030016290300381F030097FA
:101A1000150300300C0300030303000BFA02004916
:101A2000F10200BAE802005CE002002DD802002DAD
:101A3000D0020059C80200B0C0020031B90200DA79
:101A4000B10200AAAA0200A0A30200BC9C0200FAF4
:101A50009502005C8F0200DF88020082820200454E
:101A60007C02002776020027700200436A02007C95
:101A7000640200D05E02003F590200C8530200FF1A
:101A8000FDFCFAF8F6F4F2F0EEECEAE9E7E5E3E162
:101A9000E0DEDCDAD9D7D5D4D2D0CFCDCBCAC8C717
:101AA000C5C3C2C0BFBDBCBAB9B7B6B4B3B2B0AF9C
:101AB000ADACAAA9A8A6A5A4A2A1A09E9D9C9A99F6
:101AC000989795949392908F8E8D8B8A898887862C
:101AD00084838281807F7E7D7B7A79787776757446
:101AE000737271706F6E6D6C6B6A6968676665643E
:101AF000636261605F5E5D5C5B5A5958585756552A
:101B00005453525150504F4E4D4C4B4A4A494847FE
:101B10004646454443424241403F3E3E3D3C3B3BBE
:101B20003A39383837363535343332323130302F70
:101B30002E2E2D2C2B2B2A29292827272625252414
:101B4000232322212120201F1E1E1D1C1C1B1B1AAB
:101B50001919181817161615151413131212111136
:101B6000100F0F0E0E0D0D0C0C0B0A0A09090808B8
:101B7000070706060505040403030202010000200E
:101B80004A002052005072696E742050617573656E
:101B9000640020746F6F206C6F6E672065787472BC
:101BA0007573696F6E2070726576656E7465640A10
:101BB0000020636F6C6420657874727573696F6E52
:101BC0002070726576656E7465640A00536574747E
:101BD000696E67732053746F726564002062797454
:101BE00065733B20637263200053657474696E678C
:101BF000732053746F7265642028004E6F20454532
:101C000050524F4D2E0A00454550524F4D206461B1
:101C1000746173697A65206572726F722E0A00456D
:101C20004550524F4D2056657273696F6E20457254
:101C3000726F7200454550524F4D20496E64657871
:101C4000204572726F7200454550524F4D204352ED
:101C500043204572726F72003F4D65736820746F48
:101C60006F2062696720666F7220454550524F4D64
:101C70002E0A0055424C2072657365740A00206C70
:101C80006F616465642066726F6D2073746F72613A
:101C900067652E0A004D65736820003F43616E271B
:101CA0007420656E61626C65200020696E697469DC
:101CB000616C697A65642E0A0A002073746F72651C
:101CC000642073657474696E6773207265747269D9
:101CD00065766564202800202863616C63756C61FB
:101CE00074656429210A0020213D20004545505299
:101CF0004F4D20435243206D69736D6174636820BA
:101D00002D202873746F7265642920002053697A2E
:101D1000653A2000496E6465783A20004449474995
:101D2000504F5453204C6F616465640A0044494726
:101D300049504F5453204C6F6164696E670A00200C
:101D40004D61726C696E3D563832290A0045455026
:101D5000524F4D2076657273696F6E206D69736D99
:101D6000617463682028454550524F4D3D004D65D4
:101D7000736820736176656420696E20736C6F747C
:101D800020003F556E61626C6520746F2073617630
:101D900065206D65736820646174612E0A0020738C
:101DA0006C6F743D00206D65736865735F656E646C
:101DB0003D004532454E443D00206D6573682073FB
:101DC0006C6F747320617661696C61626C652E0A58
:101DD000003F496E76616C696420736C6F742E0AE3
:101DE000004D657368206C6F616465642066726F76
:101DF0006D20736C6F7420003F556E61626C6520BE
:101E0000746F206C6F6164206D6573682064617409
:101E1000612E0A0048617264636F646564204465E2
:101E20006661756C742053657474696E6773204CB9
:101E30006F616465640A00556E6966696564204275
:101E40006564204C6576656C696E67003B200020F8
:101E5000204D363033200020204D343132205300C5
:101E600046696C616D656E742072756E6F75742055
:101E700073656E736F723A0020550046696C616D30
:101E8000656E74206C6F61642F756E6C6F61642079
:101E90006C656E677468733A0020204D39303020CD
:101EA0004B004C696E65617220416476616E6365BA
:101EB0003A0020204D3835312058005A2D50726F8D
:101EC0006265204F66667365740020204D3230399C
:101ED0002053004175746F2D526574726163743ABA
:101EE00020533D3020746F2064697361626C652CEF
:101EF000203120746F20696E746572707265742071
:101F0000452D6F6E6C79206D6F766573206173203F
:101F1000726574726163742F7265636F76657200A7
:101F200020460020570020204D32303820530052E8
:101F300065636F7665723A20533C6C656E677468B2
:101F40003E20463C756E6974732F6D3E0020204D17
:101F5000323037205300526574726163743A2053F3
:101F60003C6C656E6774683E20463C756E697473A0
:101F70002F6D3E205A3C6C6966743E002044002060
:101F8000204D333031205000504944207365747423
:101F9000696E67733A00206D65736865732E0A0A6F
:101FA00000454550524F4D2063616E20686F6C6450
:101FB0002000416374697665204D65736820536C19
:101FC0006F743A200020204D3432302053002020FE
:101FD0004D323036205800486F6D65206F6666734D
:101FE00065743A0020204D3230352042004164763D
:101FF000616E6365643A20423C6D696E5F7365672C
:102000006D656E745F74696D655F75733E20533CDA
:102010006D696E5F66656564726174653E20543CEF
:102020006D696E5F74726176656C5F66656564721A
:102030006174653E204A3C6A756E635F6465763EF6
:102040000020540020204D32303420500041636382
:10205000656C65726174696F6E2028756E69747342
:102060002F7332293A20503C7072696E745F61633D
:1020700063656C3E20523C726574726163745F618B
:102080006363656C3E20543C74726176656C5F617D
:102090006363656C3E0020204D3230312058004D86
:1020A0006178696D756D20416363656C65726174FB
:1020B000696F6E2028756E6974732F7332293A0028
:1020C00020204D3230332058004D6178696D756D98
:1020D000206665656472617465732028756E697425
:1020E000732F73293A0053746570732070657220E2
:1020F000756E69743A0020204D3230302053002034
:1021000044697361626C65640A0046696C616D655F
:102110006E742073657474696E67733A0020286D5D
:102120006D29002020473231202020203B20556E91
:1021300069747320696E206D6D0020436F756E7435
:1021400020583A00453100626564002C2073797391
:1021500074656D2073746F707065642120486561CB
:102160007465725F49443A200048656174696E671E
:10217000204661696C65640048656174696E67201A
:102180006661696C656400544845524D414C20526B
:10219000554E4157415900546865726D616C20522B
:1021A000756E61776179004572723A204D415854DD
:1021B000454D50004D415854454D5020747269674B
:1021C0006765726564004572723A204D494E544508
:1021D0004D50004D494E54454D502074726967670B
:1021E0006572656400202F002042403A0020403A8A
:1021F0000020573A007C3C3E5E2B3D3F2F5B5D3B11
:102200002C2A225C0043616E6E6F74206F70656EC5
:10221000207375626469722000534420496E6974AA
:10222000204661696C0053442063617264206F6BC7
:102230000A006F70656E526F6F74206661696C651D
:10224000640A00766F6C756D652E696E6974206620
:1022500061696C65640A004E6F20534420636172AB
:10226000640A004D3234004D3233202573006F7004
:10227000656E206661696C65642C2046696C653A00
:10228000200046696C652073656C65637465640A3B
:102290000046696C65206F70656E65643A20004584
:1022A0004E4420535542524F5554494E450A002240
:1022B00020706F73002220706172656E743A220084
:1022C000535542524F5554494E452043414C4C20A2
:1022D0007461726765743A220053756263616C6C55
:1022E000204F766572666C6F77004578636565642C
:1022F0006564206D617820535542524F5554494EC4
:10230000452064657074683A310A005772697469CF
:102310006E6720746F2066696C653A20006672658E
:10232000736800646F696E67004E6F77200020202D
:10233000506C616E6E657242756666657242797444
:1023400065733A20002046726565204D656D6F7299
:10235000793A2000436F6D70696C65643A204D6175
:102360007220203620323032310A00204C617374E2
:1023700020557064617465643A20323032302D31FA
:10238000302D3135207C20417574686F723A2028D9
:1023900044722E204861636B2D4E2D536E69666624
:1023A0002C20456E6465722D3520506C7573290A9A
:1023B00000322E302E372E320A004D61726C696E5B
:1023C0000020536F6674776172652052657365747F
:1023D0000A00205761746368646F672052657365F3
:1023E000740A002042726F776E206F7574205265F8
:1023F0007365740A002045787465726E616C2052B2
:10240000657365740A00506F77657255700A0061D4
:1024100075746F25632E67004732385859004D3167
:10242000303031006572726F722077726974696E34
:102430006720746F2066696C650A00446F6E6520C2
:10244000736176696E672066696C652E0A004D328D
:102450003900656E6473746F7073206869743A2014
:102460000044722E204861636B2D4E2D536E6966B9
:102470006620352B2052656164792E005072696E9A
:1024800074696E672E2E2E00220A00556E6B6E6FD9
:10249000776E20636F6D6D616E643A202200204577
:1024A00000205A00205900204D3932205800204584
:1024B0003A00205A3A0020593A0024F4D43050C34C
:1024C0008E20C2A24017828B7011127A910D816CFE
:1024D000D90AA861E108C7586607615143061E4B37
:1024E0005D05C145A7041A411104093D98037139DE
:1024F00031034036DB0265339102D4305402802E22
:102500001D02632CEE01752AC501B028A001102719
:1025100081018F2564012B244B01E0223401AC2181
:102520001F018D200D01801FFC00841EED00971DF2
:10253000DF00B81CD200E61BC600201BBC00641ADA
:10254000B200B219A8000A19A0006A189900D117A0
:10255000910040178B00B516840031167E00B3152C
:1025600079003A157300C7146F0058146A00EE130F
:1025700066008813630025135E00C7125B006C12AF
:10258000570015125400C111510070114F00211154
:102590004B00D61049008D10470046104400021031
:1025A0004200C00F4000800F3E00420F3C00060F6B
:1025B0003B00CB0E3800930E37005C0E3500270E23
:1025C0003400F30D3200C10D3100900D3000600D6C
:1025D0002E00320D2D00050D2C00D90C2B00AE0C59
:1025E0002900850C29005C0C2700350C27000E0CF7
:1025F0002600E80B2400C40B2400A00B23007D0B55
:1026000023005A0B2100390B2100180B2000F80A77
:102610001F00D90A1E00BB0A1E009D0A1D00800A69
:102620001D00630A1C00470A1B002C0A1B00110A2C
:102630001A00F7091A00DD091900C4091900AB09CD
:102640001900920917007B091800630917004C094B
:10265000160036091600200916000A091500F508AB
:102660001500E0081400CC081400B8081400A408F1
:102670001400900813007D0812006B08130058081E
:102680001200460812003408110023081100120835
:10269000110001081100F0071000E0071000D0073A
:1026A0001000C0071000B0070F00A107100091072D
:1026B0000E0083070F0074070F0065070E00570711
:1026C0000E0049070E003B070D002E070E002007E5
:1026D0000D0013070D0006070D00F9060C00ED06AE
:1026E0000D00E0060C00D4060C00C8060C00BC0669
:1026F0000C00B0060C00A4060B0099060C008D0619
:102700000B0082060B0077060B006C060B006106BF
:102710000A0057060B004C060A0042060A0038065B
:102720000A002E060A0024060A001A060A001006ED
:10273000090007060A00FD050900F4050900EB057C
:102740000900E2050900D9050900D0050900C705FF
:102750000900BE050900B5050800AD050800A5057E
:1027600009009C050800940508008C0508008405F4
:1027700008007C050800740508006C050700650565
:1027800008005D050700560508004E0507004705CF
:1027900007004005080038050700310507002A0535
:1027A0000700230507001C050600160507000F0596
:1027B00007000805060002050700FB040600F504F3
:1027C0000700EE040600E8040600E2040700DB044C
:1027D0000600D5040600CF040600C9040600C304A1
:1027E0000600BD040600B7040600B1040500AC04F1
:1027F0000600A6040600A00405009B04060095043C
:102800000500900406008A04050085040500800484
:1028100006007A04050075040500700405006B04C9
:10282000050066040500610405005C04050057040A
:102830000500520405004D0405004804050043044A
:1028400005003E0404003A04050035040500300488
:1028500004002C04050027040400230405001E04C2
:1028600004001A04040016040500110404000D04F9
:102870000400090405000404040000040400FC032F
:102880000400F8030400F4030400F0030400EC0364
:102890000400E8030400E4030400E0030400DC0394
:1028A0000400D8030400D4030400D0030400CC03C4
:1028B0000400C8030300C503030024F404D9201B4B
:1028C000C40C5C0E9804C4095F0265077101F4052D
:1028D000F900FB04B30048048700C10369005803F2
:1028E000550003034500BE023A0084023100530242
:1028F0002A002902250004022000E4011C00C8016E
:102900001900AF0117009801140084011300710130
:1029100010006101100051010E0043010D0036014D
:102920000B002B010B0020010B00150109000C010D
:10293000090003010800FB000800F3000800EB0099
:102940000700E4000600DE000600D8000600D20002
:102950000600CC000500C7000500C2000500BD0050
:102960000400B9000400B5000400B1000400AD008B
:102970000400A9000400A5000300A20003009F00BA
:1029800004009B00030098000300950002009300E0
:102990000300900003008D0002008B0003008800FC
:1029A00002008600020084000300810002007F0014
:1029B00002007D0002007B00020079000200770027
:1029C0000100760002007400020072000100710034
:1029D00002006F0002006D0001006C0002006A003E
:1029E0000100690002006700010066000100650047
:1029F000010064000200620001006100010060004B
:102A000001005F0002005D0001005C0001005B004E
:102A100001005A0001005900010058000100570050
:102A20000100560001005500010054000100530050
:102A3000000053000100520001005100010050004D
:102A400001004F0001004E0000004E0001004D004B
:102A500001004C0001004B0000004B0001004A0047
:102A60000100490001004800000048000100470043
:102A7000010046000000460001004500000045003E
:102A80000100440001004300000043000100420037
:102A90000000420001004100000041000100400030
:102AA00001003F0000003F0001003E0000003E002A
:102AB00001003D0000003D0001003C0000003C0022
:102AC00000003C0001003B0000003B0001003A0018
:102AD00000003A0001003900000039000100380010
:102AE0000000380000003800010037000000370007
:102AF00001003600000036000000360001003500FD
:102B000000003500000035000100340000003400F2
:102B100000003400010033000000330000003300E7
:102B200001003200000032000000320001003100DC
:102B300000003100000031000100300000003000D2
:102B40000000300001002F0000002F0000002F00C7
:102B500000002F0001002E0000002E0000002E00BB
:102B600001002D0000002D0000002D0000002D00B0
:102B700001002C0000002C0000002C0000002C00A4
:102B800001002B0000002B0000002B0000002B0098
:102B900001002A0000002A0000002A0000002A008C
:102BA0000100290000002900000029000000290080
:102BB0000000290001002800000028000000280073
:102BC0000000280000002800010027000000270066
:102BD0000000270000002700000027000100260059
:102BE000000026000000260000002600000026004D
:102BF0000100250000002500000025000000250040
:102C00000000250000002500010024000000240031
:102C10000000240000002400000024000100230024
:102C20000000230000002300000023000000230018
:102C30000000230000002300010022000000220009
:102C400000002200000022000000220000002200FC
:102C500001002100000021000000210000002100EF
:102C600000002100000021000000210001002000E0
:102C700000002000000020000000200000002000D4
:102C800000002000000020000000200001001F00C4
:102C900000001F0000001F0000001F0000001F00B8
:102CA00000001F0000001F0001001E0000001E00A9
:102CB00000001E0000001E0000000000B74300805E
:102CC000B8430080CA4300000041000080BF0000FC
:102CD00000000000FA450000FA4500007041006065
:102CE0006A460000A0420000A042000048443D0A9D
:102CF000BA42881300008813000064000000102707
:102D00000000232C0000B8220000561800003A0FE3
:102D10000000B8080000B1040000710200003E018C
:102D2000000070012C0190012701B0012201C001B7
:102D30001D01F00118011002130130020E016002A2
:102D4000090190020401C002FF000003FA004003E1
:102D5000F5008003F000D003EB002004E6007004CF
:102D6000E100E004DC004005D700C005D2004006C9
:102D7000CD00D006C8008007C3003008BE00F008B0
:102D8000B900C009B400B00AAF00B00BAA00D00C63
:102D9000A500000EA000500F9B00C010960050121E
:102DA000910000148C00C0158700B0178200B01984
:102DB0007D00D01B7800001E730040206E00902222
:102DC0006900F024640040275F0090295A00E02B3E
:102DD0005500102E500020304B0010324600E033DA
:102DE000410090353C001037370070383200A03970
:102DF0002D00B03A2800A03B2300603C1E00103D8F
:102E00001900903D1400103E0F00703E0A00C03EB5
:102E10000500003F0000403FFBFF803FF6FFC03F42
:102E2000F1FF00000A0B02090C0D0E080703040154
:102E30000000000000000000000000000000000092
:102E4000000000000000000000000000000012115F
:102E50001000000000000000000000000000000062
:102E60000000000000000000DB0FC93F45BCDA3F56
:102E70008FB30240FCF0274056946140FE4B9B40CC
:102E800084A5D840E0231841346A5641E859974157
:102E900064DBD5416E271742B4B75542CE1A97422C
:102EA000C8AED542B5885A43D40684BFA65FA7BF33
:102EB0007443E0BF10B11AC01C2C58C0E8F697C08C
:102EC000B849D6C04E4E17C124D355C1802497C1EE
:102ED000A0B5D5C1121A17C244AE55C2781797C211
:102EE0006CACD5C267885AC30000220025002800B8
:102EF0002B002E0031003400020100000501080102
:102F00000B0100002100240027002A002D003000C2
:102F1000330001010000040107010A010505050550
:102F2000070508080808020202020A0A0808040441
:102F3000040401010101010101010303030303036F
:102F40000303040707070C0C0C0C0C0C0C0C0202FE
:102F5000020206060606060606060B0B0B0B0B0BFB
:102F60000B0B010210202008081020401020408088
:102F7000020102010804020101020408102040803D
:102F800080402010080402018004020180402010CB
:102F90000804020108040201010204081020408014
:102FA0000102040810204080DBFB550111241FBEE4
:102FB000CFEFD1E2DEBFCDBF00E00CBF13E0A0E059
:102FC000B2E0EEEBF4E202E00BBF02C007900D921C
:102FD000A036B107D9F726E1A0E6B3E001C01D9203
:102FE000A133B207E1F717E1C5EDD7E100E006C074
:102FF00021970109802FFE010F940E0DC43DD107CA
:1030000080E00807A9F70E94EDFC0D944D120C9486
:1030100000009F92AF92BF92CF92DF92EF92FF9209
:103020000F931F93CF93DF9300D01F921F92CDB7C2
:10303000DEB7EFE7FAE10027BB27462F572FA82F6F
:10304000AA2341F4A52F542FB85FAA2319F4A52F62
:103050005527B85FA03138F45295A295452F4F708F
:10306000507FA42BBC5FA03428F4550FAA1F550F26
:10307000AA1FBE5FA03818F4550FAA1FB395550FAD
:10308000AA1FEA0FF01F449151E0AA27B85081F11E
:10309000C8F0B0FF02C0440F551FB1FF04C0440F79
:1030A000551F440F551FB2FF06C052954295142F6D
:1030B0001F70407F512BB3FF1BC0A52F542F4427F7
:1030C0000C947818B195B0FF02C055954795B1FFA3
:1030D00004C05595479555954795B2FF05C0529543
:1030E000407F4295452B5F70B3FF02C0452F5527A7
:1030F000DD24CC24BB24B2E0649FD018C108B00A00
:10310000B00B749FC018B108B00B849FB018B10900
:10311000659FC018B108B00B759FB018B109859FA5
:10312000B0196A9FB018B1097A9FB0194D9DA12CB2
:1031300099243327992722275D9DA00C911C301FCD
:10314000901F201FAD9D900C311D901F201F4C9D86
:10315000A00C911C301F901F201F5C9D900C311DF6
:10316000901F201FAC9D300D911D201F4B9D900C7A
:10317000311D901F201F5B9D300D911D201FAB9DA9
:10318000900D211D4B9F300D911D201F5B9F900DB9
:10319000211DAB9F200DB1E0BB24CC24DD24639F17
:1031A000D018C108B00AB00B739FC018B108B00B9B
:1031B000839FB018B109699FC018B108B00B799FFF
:1031C000B018B109899FB019629FB018B109729FF8
:1031D000B019D61AC70AB80A20F0B1E03B0F901F09
:1031E000201F1124792F632F90E0822F0F900F90D2
:1031F0000F900F900F90DF91CF911F910F91FF9043
:10320000EF90DF90CF90BF90AF909F90089580FF98
:1032100004C09091D50590FD8E7F81FF04C09091F0
:10322000D50591FD8D7F82FF04C09091D50592FD5B
:103230008B7F0895CF92DF92EF92FF921F93CF93EF
:10324000DF9320912202222309F48DC0EC0110911A
:10325000D50510FF2CC0C0902402D0902502E0902C
:103260002602F0902702288139814A815B81C701BB
:10327000B6010F94900F181624F4C882D982EA82FE
:10328000FB82C0903002D0903102E0903202F09088
:103290003302288139814A815B81C701B6010F94CD
:1032A0008C0887FF04C0C882D982EA82FB8211FFA2
:1032B0002CC0C0902802D0902902E0902A02F09001
:1032C0002B022C813D814E815F81C701B6010F9495
:1032D000900F181624F4CC82DD82EE82FF82C0901B
:1032E0003402D0903502E0903602F09037022C8103
:1032F0003D814E815F81C701B6010F948C0887FF25
:1033000004C0CC82DD82EE82FF8212FF2CC0C0900E
:103310002C02D0902D02E0902E02F0902F022885F2
:1033200039854A855B85C701B6010F94900F181641
:1033300024F4C886D986EA86FB86C0903802D090ED
:103340003902E0903A02F0903B02288539854A859F
:103350005B85C701B6010F948C0887FF04C0C8863F
:10336000D986EA86FB86DF91CF911F91FF90EF907F
:10337000DF90CF9008958091C5059091C605A091EA
:10338000C705B091C8058093100290931102A093D5
:103390001202B09313028091C3059091C4059093DB
:1033A0000F0280930E0208958091100290911102F5
:1033B000A0911202B09113028093C5059093C605A7
:1033C000A093C705B093C80580910E0290910F029B
:1033D0009093C4058093C30584E690E090930F0218
:1033E00080930E0208954F925F926F927F928F9218
:1033F0009F92AF92BF92CF92DF92EF92FF92CF93C4
:10340000DF93CDB7DEB76E970FB6F894DEBF0FBE71
:10341000CDBF9E8F8D8FDC01D896CD90DD90ED9045
:10342000FC90DB9720E030E0A901C701B6010F94C2
:103430008C08811117C081E090E06E960FB6F89469
:10344000DEBF0FBECDBFDF91CF91FF90EF90DF9039
:10345000CF90BF90AF909F908F907F906F905F9034
:103460004F900895A7019601ED8DFE8D60817181C9
:10347000828193810F942A0E69837A838B839C8344
:10348000AD8DBE8D6D937D938D939C931397A70106
:10349000960114966D917D918D919C9117970F9443
:1034A0002A0E6D837E838F839887ED8DFE8D6483D6
:1034B000758386839783A7019601608571858285D0
:1034C00093850F942A0E69877A878B879C87AD8DA9
:1034D000BE8D18966D937D938D939C931B97A7013A
:1034E00096011C966D917D918D919C911F970F94E3
:1034F0002A0E4B015C0129813A814B815C81CA0112
:10350000B9010F94F2089B01AC01C501B4010F94FD
:103510002F0D6D877E878F87988BED8DFE8D64874D
:10352000758786879787A701960160897189828947
:1035300093890F942A0E4B015C012D813E814F81AE
:103540005885CA01B9010F94F2089B01AC01C5016D
:10355000B4010F942F0D698B7A8B8B8B9C8BAD8D67
:10356000BE8D50966D937D938D939C935397A70139
:10357000960154966D917D918D919C9157970F94E2
:103580002A0E4B015C0129853A854B855C85CA0171
:10359000B9010F94F2089B01AC01C501B4010F946D
:1035A0002F0DED8DFE8D648B758B868B978BA70110
:1035B0009601608D718D828D938D0F942A0E4B0133
:1035C0005C012D813E814F81588569817A818B8193
:1035D0009C810F94F2089B01AC01C501B4010F94CA
:1035E0002F0D4B015C01AD8DBE8D58968D929D9235
:1035F000AD92BC925B97A701960190966D917D91DB
:103600008D919C9193970F942A0E2B013C01298553
:103610003A854B855C856D817E818F8198850F947D
:10362000F2089B01AC01C301B2010F942F0D6D8B09
:103630007E8B8F8B988FED8DFE8D60A371A382A3FF
:1036400093A3A7019601648D758D868D978D0F9438
:103650002A0E6B017C0129853A854B855C85698141
:103660007A818B819C810F94F2089B01AC01C70188
:10367000B6010F942F0D698F7A8F8B8F9C8FAD8D34
:10368000BE8D5C966D937D938D939C935F972989F6
:103690003A894B895C896D857E858F8598890F94E1
:1036A000F2086B017C01A5019401C501B4010F94DE
:1036B000F2089B01AC01C701B6010F942F0D6B01FD
:1036C0007C0120E030E0A9010F94900F2601370122
:1036D00087FF04C077FA709477F87094ED8DFE8DB3
:1036E00020A531A542A553A564A175A186A197A1E6
:1036F0000F94300D2FEF36EE4BED5EE20F94F20893
:10370000A30192010F94900F87FF95CE2D893E89DA
:103710004F89588DC501B4010F94F2082B013C016B
:10372000298D3A8D4B8D5C8D69897A898B899C892D
:103730000F94F2089B01AC01C301B2010F942F0D4D
:10374000A70196010F942A0E2B013C01AD8DBE8D71
:103750009C964D925D926D927C929F97298D3A8DA9
:103760004B8D5C8DC501B4010F94F2084B015C01D7
:103770002D893E894F89588D6D857E858F859889E5
:103780000F94F2089B01AC01C501B4010F942F0DF9
:10379000A70196010F942A0E6B017C01ED8DFE8D21
:1037A000C0AAD1AAE2AAF3AAA301920169817A81EF
:1037B0008B819C810F94F20829853A854B855C8525
:1037C0000F94300D4B015C01A70196016D817E8144
:1037D0008F8198850F94F2089B01AC01C501B4015B
:1037E0000F94300D9058AD8DBE8DD4966D937D9312
:1037F0008D939C93D79790E080E01FCE1092B105F7
:10380000089580918F1190919011891B8F7089F488
:103810008091A70981110DC08091E4079091E5077F
:10382000892B39F481E09091E607911103C080E083
:10383000089581E00895DC011296ED91FC91309796
:1038400039F0DB0111969C9111978C9190838183C3
:103850000895FC0180819181803122E2920729F054
:103860008C31924281F080E001C088EC0280F381CB
:10387000E02D20813181121613060CF480E090E0D7
:103880009183808308958CE3F1CFDC011296ED9152
:10389000FC9181E09081911180E081958083089571
:1038A000CF92DF92EF92FF92CF93DF93EC01FB0177
:1038B00060817181762767277627072E000C880B99
:1038C000990B0F94930820E030E048EC52E40F94F9
:1038D0002A0E6B017C0120E030E040E850EC0F94B0
:1038E000900F87FD12C020E030E040EA51E4C701AC
:1038F000B6010F948C08181644F0C092D906D092E5
:10390000DA06E092DB06F092DC06888199819093DA
:10391000200580931F05DF91CF91FF90EF90DF90FE
:10392000CF9008950F931F93CF93DF938C01DB010A
:103930006D917C9176276727762790E080E00F9441
:10394000910820E030E040E251E40F942A0EF801A3
:10395000C081D181C430F7E3DF0771F168F4C1158C
:10396000A7E3DA07A9F0C230B7E3DB07F1F0DF9194
:10397000CF911F910F910895C231E7E3DE07A9F0BF
:10398000C431F7E3DF07C1F0C03127E3D20779F78D
:10399000D8011296ED91FC916083718382839383A9
:1039A000D0932005C0931F05E2CF2CEA35EC47E207
:1039B0005EE30F94F208ECCF2CEA35EC47E25EE3CD
:1039C0000F942A0EE5CFCF93DF93FC01C081D18104
:1039D000C039F0E3DF0761F5FB0160817181762773
:1039E000672776277093150260931402072E000C48
:1039F000880B990B0F9493082AE037ED43E25CE3C0
:103A00000F94F2082091E6053091E7054091E80512
:103A10005091E9050F94F208609357027093580291
:103A20008093590290935A02D0932005C0931F05AA
:103A3000DF91CF910895CF93DF93FC01C281D381B1
:103A40002097B1F0FB0120813181322723273227D3
:103A50002536310510F024E630E0AFEFB0E00F94EA
:103A6000CB0C24E630E040E050E00F94A10C28831A
:103A7000DF91CF91089510921E051092B005089520
:103A8000CF93DF93DB01F9019C919130C1F0943029
:103A900080F094509C938830D1F48081918100977C
:103AA00071F0019791838083480F591FEA011882B2
:103AB00006C08C3539F49C5F9C93943041F4DF91BF
:103AC000CF9108958B3339F781E08C93F8CF208123
:103AD0003181B9016F5F7F4F71836083420F531F44
:103AE000EA018883808191818F3591056CF7E7CF5A
:103AF0009091E307E92FF0E0E953FE4E80839F5F4A
:103B0000943040F49093E3078091A7098F5F8093EE
:103B1000A70908951092E307F7CF282F9091BE04CC
:103B2000833021F495FD0FC094FD0FC0892F90E0E4
:103B3000B0E0A0E004C0B695A795979587952A9523
:103B4000D2F78170089581E0089580E008958F9202
:103B50009F92AF92BF92CF92DF92EF92FF92CF935C
:103B6000DF93EC018090FF0690900007A090010782
:103B7000B090020720E030E0A901C501B4010F9424
:103B80008C08882309F454C0C880D980EA80FB805F
:103B9000A7019601C501B4010F948C0818160CF00A
:103BA0004CC020919A0430919B0440919C04509108
:103BB0009D04C701B6010F948C08882331F1C0928F
:103BC0009A04D0929B04E0929C04F0929D04209170
:103BD000960430919704409198045091990468811B
:103BE00079818A819B810F94F2089B01AC0160E08E
:103BF00070E080E89FE30F942F0D609301027093B3
:103C0000020280930302909304026091010270917A
:103C100002028091030290910402DF91CF91FF9004
:103C2000EF90DF90CF90BF90AF909F908F900895CE
:103C300060E070E080E89FE3F0CF60E070E0CB01EF
:103C4000ECCF0F931F93CF938C0120E030E040E73F
:103C500051E4FC0164817581868197810F942F0D59
:103C600020E930E940E95CE30F94F2080F949C0EE0
:103C7000C62F6730ECF0C6E020E030E040E751E4CA
:103C8000F80160817181828193810F942F0D29E861
:103C90003AED45E95CE30F94F2080F949C0E862FF1
:103CA000673054F086E09C2FCF911F910F910895BB
:103CB00067FFE2CFC0E0E0CF67FFF5CF80E0F3CF52
:103CC000840F911DFC01808190E0B0E0A0E004C071
:103CD000B695A795979587956A95D2F781700895BF
:103CE000FC01208131816217730714F471836083B2
:103CF00008954F925F926F927F928F929F92AF92B0
:103D0000BF92CF92DF92EF92FF920F931F93CF93C8
:103D1000DF93C82F062F542E622EE62EF12C37E0AB
:103D2000732EC82ED12CF701789EE00DF11D1124C1
:103D3000EE0FFF1FEE0FFF1FEB5FF94F60817181E8
:103D4000828193819B01AC010F947D10882309F43B
:103D50007AC0C50D0C2E000CDD0B060D002E000CDC
:103D6000110B7C9EF0017D9EF00D1124E00FF11FE0
:103D7000EE0FFF1FEE0FFF1FEB5FF94F808091806A
:103D8000A280B380A5019401C501B4010F947D10F8
:103D9000811159C0C50DD11D57FCDA957C9EF001EB
:103DA0007D9EF00D1124060D111D67FC1A95E00F84
:103DB000F11FEE0FFF1FEE0FFF1FEB5FF94F40806B
:103DC000518062807380A3019201C301B2010F94FC
:103DD0007D10811138C0A3019201C501B4010F9477
:103DE0008C0887FD0CC0A5019401C501B4010F9496
:103DF000300DA30192010F942F0D4B015C0187E060
:103E00008C9DF0018D9DF00D1124EE0DFF1DEE0F28
:103E1000FF1FEE0FFF1FEB5FF94F80829182A2829E
:103E2000B38281E0DF91CF911F910F91FF90EF90CE
:103E3000DF90CF90BF90AF909F908F907F906F90CA
:103E40005F904F90089580E0EDCF8F929F92AF9258
:103E5000BF92CF92DF92EF92FF920F931F93CF9377
:103E6000DF9388EEE82E85E1F82E90EFC92E95E1DC
:103E7000D92EF70185919491FC01A4903296B490CB
:103E80003197C491329604910496FC018491882361
:103E9000F9F088248A94AC1614F488248394002EB4
:103EA000000C110B0C2E000CDD0BB016110679F175
:103EB0009A2C9C161D0651F020E0482D6B2D892D63
:103EC0000E94791E811102C0980CF3CFB394EDCFFC
:103ED00088248A94B01614F4882483940C2E000C41
:103EE000DD0B002E000C110BAC161D0681F09B2C77
:103EF0009016110651F0282D40E0692D8A2D0E9460
:103F0000791E811102C0980CF3CFA394EDCFF2E09B
:103F1000EF0EF11CCE14DF0409F0ABCFDF91CF918F
:103F20001F910F91FF90EF90DF90CF90BF90AF90D7
:103F30009F908F9008954F925F926F927F928F9291
:103F40009F92AF92BF92CF92DF92EF92FF920F9328
:103F50001F93CF93DF9340908D0450908E04609018
:103F60008F047090900405E016E0C7E07801D7E078
:103F7000F70181909190A190B1907F01A5019401EA
:103F8000C501B4010F947D1081110FC06701F4E0E9
:103F9000CF1AD108A5019401C301B2010F94300DCD
:103FA000F6016083718382839383D15009F7C150F6
:103FB000045E1F4FC111DACFDF91CF911F910F9196
:103FC000FF90EF90DF90CF90BF90AF909F908F9039
:103FD0007F906F905F904F900895089508958F920D
:103FE0009F92AF92BF92CF92DF92EF92FF920F9388
:103FF0001F93CF93DF93EC017B018A016901FB01E1
:104000002081318142815381688179818A819B81BC
:104010000F94300D688379838A839B83F801208114
:104020003181428153816C817D818E819F810F948A
:10403000300D6C837D838E839F83F60120813181D7
:1040400042815381688579858A859B850F94300DDF
:10405000688779878A879B87F70160817181828170
:1040600093819B01AC010F94F2089B01AC016C851C
:104070007D858E859F850F94300D6C877D878E871B
:104080009F87F80160817181828193819B01AC01DE
:104090000F94F2089B01AC01688979898A899B8910
:1040A0000F94300D688B798B8A8B9B8BF601608126
:1040B0007181828193819B01AC010F94F2089B0175
:1040C000AC016C897D898E899F890F94300D6C8B32
:1040D0007D8B8E8B9F8BF8012081318142815381B2
:1040E000F70160817181828193810F94F2089B01B5
:1040F000AC01688D798D8A8D9B8D0F94300D688F02
:10410000798F8A8F9B8FF601208131814281538183
:10411000F70160817181828193810F94F2089B0184
:10412000AC016C8D7D8D8E8D9F8D0F94300D6C8FBD
:104130007D8F8E8F9F8FF601208131814281538147
:10414000F80160817181828193810F94F2089B0153
:10415000AC0168A179A18AA19BA10F94300D68A33D
:1041600079A38AA39BA38CA09DA0AEA0BFA0F701BA
:10417000C080D180E280F38020E030E0A901C70157
:10418000B6010F94900F87FF04C0F7FAF094F7F888
:10419000F094A7019601B401C5010F948C0887FD26
:1041A00002C064017501CCA2DDA2EEA2FFA288A428
:1041B00099A4AAA4BBA4F801C080D180E280F380B6
:1041C00020E030E0A901C701B6010F94900F87FFEE
:1041D00004C0F7FAF094F7F8F094A7019601B4013F
:1041E000C5010F948C0887FD02C064017501C8A643
:1041F000D9A6EAA6FBA620E030E040E85FE368AD80
:1042000079AD8AAD9BAD0F94300D68AF79AF8AAFB1
:104210009BAFDF91CF911F910F91FF90EF90DF90B7
:10422000CF90BF90AF909F908F9008952FEB280F65
:104230002A3108F047C0E22FF0E08091DF0490912E
:10424000E004A091E104B091E20404C0B695A79502
:10425000979587952A95D2F780FD02C081700895C1
:10426000E054FB4FE081EE2341F180913B109091AF
:104270003C10E80FF92FF11D808190ED980F9A30D6
:1042800030F08E3251F4818180538A3098F4F0936B
:10429000A404E093A30481E008958D3211F08B32E1
:1042A00049F4818190ED980F9A3088F38E3211F4A1
:1042B0008281EACFF0E0E0E0EACF1092A40410920D
:1042C000A304E9CF80E00895CF92DF92EF92FF92AE
:1042D00020E030E040E85FE36091D5067091D606BB
:1042E0008091D7069091D8060F942F0D6B017C0119
:1042F00020E030E040EA50E40F948C0887FF06C0CD
:10430000C12CD12C80EAE82E80E4F82EC701B6013A
:10431000FF90EF90DF90CF900895CF92DF92EF92D1
:10432000FF9220E030E047EB53E46091D1067091BA
:10433000D2068091D3069091D4060F94300D6B0174
:104340007C0120E030E840EB53E40F94900F181606
:104350003CF4C12C80E8D82E80EBE82E83E4F82EC4
:10436000C701B601FF90EF90DF90CF900895CF92F4
:10437000DF92EF92FF9220E030E040E051E4609164
:10438000D1067091D2068091D3069091D4060F94F5
:10439000300D6B017C0120E030E040EA50E40F94E6
:1043A0008C0887FF06C0C12CD12C80EAE82E80E45F
:1043B000F82EC701B601FF90EF90DF90CF900895DF
:1043C0004F925F926F927F928F929F92AF92BF9225
:1043D000CF92DF92EF92FF92CF93DF9300D000D085
:1043E000CDB7DEB79E838D83DB01CD90DD90ED9060
:1043F000FC908091D5069091D606A091D706B091F9
:10440000D80689839A83AB83BC839C01AD01C70125
:10441000B6010F942F0D4B015C0127E433E040E817
:104420005FEB0F94900F87FD90C023E030E848EBDE
:1044300053E4C501B4010F948C0818160CF485C020
:10444000AD81BE818D909D90AD90BC902091D106A4
:104450003091D2064091D3065091D406C501B401E3
:104460000F942F0D2B013C012EE23FEF4FEF50E454
:104470000F94900F87FD69C023E030E047EB53E4D1
:10448000C301B2010F948C0818160CF45EC00E9490
:10449000B72127E137EB41ED58E30F942F0D9B0136
:1044A000AC01C501B4010F94900F87FD4EC00E946E
:1044B0008D2127E137EB41ED58E30F94300D9B013F
:1044C000AC01C501B4010F948C0818160CF43DC062
:1044D0000E94642127E137EB41ED58E30F942F0D43
:1044E0009B01AC01C701B6010F94900F87FD2DC051
:1044F00020E030E848EB53E469817A818B819C812C
:104500000F94300D4B015C0120E030E846EB53E4A2
:104510000F94900F18163CF4812C80E8982E86EBAF
:10452000A82E83E4B82E27E137EB41ED58E3C5010F
:10453000B4010F94300D9B01AC01B1E0B983C70108
:10454000B6010F948C0818160CF4198289812696EE
:104550000FB6F894DEBF0FBECDBFDF91CF91FF90B5
:10456000EF90DF90CF90BF90AF909F908F907F9013
:104570006F905F904F9008952FEFFC01208321836F
:104580000895682F70E08730A0F4660F771F660FDC
:10459000771FFB01E051FA4E459155916591749159
:1045A000F42FE52F362F272F6F2F7E2F832F922F5B
:1045B0000895072E000C880B990B0F9493082BEA93
:1045C0003AEA42E652E40F94F20820E030E040E795
:1045D00051E40F94300DF62FE72F382F292FE4CF19
:1045E0008F929F92AF92BF92CF92DF92EF92FF9203
:1045F0000F931F93CF93DF938B01EA01FC01C080DF
:10460000D180E280F380842F0E94C1229B01AC0103
:10461000C701B6010F942F0D20E930E940E95CE3B2
:104620000F94F2084B015C0187E0809FF001819FAD
:10463000F00D1124EC0FFD1FEE0FFF1FEE0FFF1FFB
:10464000EB5FF94FC080D180E280F380C530D105A7
:1046500014F0C5E0D0E087E0809FF001819FF00D6D
:1046600011242196EC0FFD1FEE0FFF1FEE0FFF1F11
:10467000EB5FF94FA701960160817181828193817F
:104680000F942F0DA50194010F94F208A701960134
:104690000F94300DDF91CF911F910F91FF90EF900C
:1046A000DF90CF90BF90AF909F908F900895682F2C
:1046B00070E08730A0F4660F771F660F771FFB014D
:1046C000E45FF94E4591559165917491F42FE52F72
:1046D000362F272F6F2F7E2F832F922F0895072E8F
:1046E000000C880B990B0F9493082BEA3AEA4AE5E1
:1046F00052E40F94F20820E030E040E751E40F94D8
:10470000300DF62FE72F382F292FE4CF8F929F926D
:10471000AF92BF92CF92DF92EF92FF920F931F93CF
:10472000CF93DF93EB018A01FC01C080D180E2804E
:10473000F380862F0E9457239B01AC01C701B6016D
:104740000F942F0D29E83AED45E95CE30F94F20848
:104750004B015C0187E08C9FF0018D9FF00D1124CF
:10476000E00FF11FEE0FFF1FEE0FFF1FEB5FF94F82
:10477000C080D180E280F380C530D10514F0C5E05F
:10478000D0E0219687E08C9FF0018D9FF00D1124E1
:10479000E00FF11FEE0FFF1FEE0FFF1FEB5FF94F52
:1047A000A701960160817181828193810F942F0D01
:1047B000A50194010F94F208A70196010F94300D02
:1047C000DF91CF911F910F91FF90EF90DF90CF90ED
:1047D000BF90AF909F908F9008950F931F93CF93AA
:1047E000DF9300D000D01F921F92CDB7DEB78C01AF
:1047F000FC0180810E94572369837A838B839C8389
:10480000F80181810E94C122E62F462F572FBC015B
:104810004D835E836F83788729813A814B815C81E8
:104820006E2F7E818F81988528960FB6F894DEBF13
:104830000FBECDBFDF91CF911F910F9108952F92A1
:104840003F924F925F926F927F928F929F92AF9220
:10485000BF92CF92DF92EF92FF920F931F93CF936D
:10486000DF93CDB7DEB762970FB6F894DEBF0FBE09
:10487000CDBF9A838983788B6F8720E030E040E753
:1048800051E4FC0160817181828193810F942F0D2D
:1048900029E83AED45E95CE30F94F2080F949C0E89
:1048A000698B67300CF45CC1F6E0F98B20E030E0F6
:1048B00040E751E4EF85F8896081718182819381BD
:1048C0000F942F0D20E930E940E95CE30F94F208E2
:1048D0000F949C0E6A8B67300CF447C1F6E0FA8B9C
:1048E0003989232E330F3308C101E6E02E16310437
:1048F00014F085E090E09C012F5F3F4F3E872D87AD
:1049000039893F5F3D83832F0E94572369877A87C8
:104910008B879C8789890E9457236B017C0187E0E4
:10492000829DF001839DF00D11249A89092F990F22
:10493000110BE00FF11FEE0FFF1FEE0FFF1FEB5FDC
:10494000F94F40805180628073802D853E85829F23
:10495000F001839FF00D1124E00FF11FEE0FFF1FF8
:10496000EE0FFF1FEB5FF94FA30192016081718190
:10497000828193810F942F0D4B015C01A701960159
:10498000E981FA8160817181828193810F942F0D79
:104990009B01AC01C501B4010F94F2084B015C010D
:1049A000A701960169857A858B859C850F942F0DCB
:1049B0009B01AC01C501B4010F942A0EA301920121
:1049C0000F94300D69877A878B879C875801063052
:1049D00011051CF025E0A22EB12C2FEFA21AB20A6D
:1049E0008D810E9457236D837E838F839887898969
:1049F0000E9457236B017C0127E0229DF001239D3B
:104A0000F00D1124EA0DFB1DEE0FFF1FEE0FFF1F2F
:104A1000EB5FF94F40805180628073808D859E8569
:104A2000289FF001299FF00D1124EA0DFB1DEE0FC8
:104A3000FF1FEE0FFF1FEB5FF94FA3019201608193
:104A40007181828193810F942F0D4B015C01A7012D
:104A50009601E981FA8160817181828193810F944D
:104A60002F0D9B01AC01C501B4010F94F2084B015D
:104A70005C01A70196016D817E818F8198850F94DD
:104A80002F0D9B01AC01C501B4010F942A0EA301A7
:104A900092010F94300D2B013C018A898F5F0E9497
:104AA000C12269837A838B839C838A890E94C12275
:104AB0006B017C01AC019B01EF85F88960817181FC
:104AC000828193810F942F0D4B015C0129853A85DA
:104AD0004B855C85C301B2010F942F0D9B01AC0186
:104AE000C501B4010F94F2084B015C01A7019601C6
:104AF00069817A818B819C810F942F0D9B01AC0180
:104B0000C501B4010F942A0E29853A854B855C8531
:104B10000F94300D6B017C01AC019B010F947D1053
:104B2000882319F0C12CD12C7601C701B6016296F9
:104B30000FB6F894DEBF0FBECDBFDF91CF911F91AE
:104B40000F91FF90EF90DF90CF90BF90AF909F902C
:104B50008F907F906F905F904F903F902F9008952F
:104B6000298927FFA3CE198AA1CE2A8927FFB8CE8B
:104B70001A8AB6CECF92DF92EF92FF92CF93DF9355
:104B8000EC0108960E94A71D6B017C0120E030E03B
:104B9000A9010F948C0820E030E0A901882371F06E
:104BA000BE016C5F7F4FCE010E941F249B01AC01B0
:104BB000C701B6010F94F2089B01AC0168857985A5
:104BC0008A859B850F942F0D688779878A879B87B5
:104BD000DF91CF91FF90EF90DF90CF900895CF922B
:104BE000DF92EF92FF92CF93DF93EC01CC80DD80D8
:104BF000EE80FF8027E433E040E85FEBC701B601B9
:104C00000F94900F87FD23C023E030E848EB53E476
:104C1000C701B6010F948C081816CCF0C880D98053
:104C2000EA80FB802EE23FEF4FEF50E4C701B60170
:104C30000F94900F87FD0BC0C1E023E030E047EBFD
:104C400053E4C701B6010F948C0818160CF4C0E0A9
:104C50008C2FDF91CF91FF90EF90DF90CF90089550
:104C600045E056E027E0B0E0A0E0FD01EE0FFF1FB9
:104C7000EE0FFF1FE40FF51F608371838283938320
:104C80001196A730B10589F72150445E5F4F21117D
:104C9000EACF08959091790480937904892F08953B
:104CA0000F931F93CF938C0120E030E040E751E455
:104CB000FC0160817181828193810F942F0D2BEA19
:104CC0003AEA4AED51E40F94300D29E83AED45E90E
:104CD0005CE30F94F2080F949C0EC62F673008F027
:104CE000CFEF20E030E040E751E4F80164817581C6
:104CF000868197810F942F0D2BEA3AEA42EE51E418
:104D00000F94300D20E930E940E95CE30F94F2089C
:104D10000F949C0E962F673008F09FEF8C2FCF9149
:104D20001F910F910895EF92FF921F93CF93DF93FE
:104D300095E0E92E96E0F92E17E0D0E0C0E0FE0104
:104D4000EE0FFF1FEE0FFF1FEE0DFF1D6081718143
:104D5000828193819B01AC010F947D10811111C060
:104D60002196C730D10559F711508CE1E80EF11C9E
:104D70001111E3CF81E0DF91CF911F91FF90EF9070
:104D8000089580E0F8CF129A08955F9A8091D50730
:104D90008E7F8093D5078A9A8091D5078D7F8093E7
:104DA000D5078091080180958170809306018091DC
:104DB000D5078B7F8093D5070C94C326269A2E9A0D
:104DC000089580912605909127052FEF3FEF9817C2
:104DD00051F0E92FF0E0EA5DFA4F228130E09F5F69
:104DE0009F7790932705C9010895EEE7F3E080814E
:104DF00081830895CF93DF9300D01F92CDB7DEB7A4
:104E000080E090E0A8E8B1E489839A83AB83BC8317
:104E100061E0CE0101960E94F1C10F900F900F90BA
:104E20000F90DF91CF9108950F931F938091D30935
:104E3000813019F50E94F2C30091F2051091F3053B
:104E40002091F4053091F505601B710B820B930BDB
:104E500028EE33E040E050E00F947F0C6091F605BF
:104E60007091F7058091F8059091F905620F731F15
:104E7000841F951F1F910F9108956091FA057091FD
:104E8000FB058091FC059091FD05D6CF8091D3095B
:104E9000813079F482E08093D3090E94F2C3609359
:104EA000FA057093FB058093FC059093FD0581E066
:104EB000089580E008950F931F930E94F2C300911C
:104EC000BC071091BD072091BE073091BF070115A7
:104ED00011052105310509F03EC02091B3112223AF
:104EE000B9F1E091B11121502093B31121E02E0FBF
:104EF0002093B1113091B411231302C01092B1115B
:104F000024E0E29FF0011124EB54FE4E0081118158
:104F1000228133810093B8071093B9072093BA0711
:104F20003093BB07600F711F811D911D6093BC07FB
:104F30007093BD078093BE079093BF078091BA0717
:104F40009091BB07892B21F08FB7F8948FBF409ABF
:104F50001F910F910895601B710B820B930B97FDAE
:104F6000F7CF40981092BC071092BD071092BE0771
:104F70001092BF07EDCF20915402309155022F506F
:104F80003109821793070CF49C013093E1102093B0
:104F9000E0100C94FEC3EFE2F7E01082118212825F
:104FA000138214820C94FEC34F925F926F927F9291
:104FB0008F929F92AF92BF92CF92DF92EF92FF9229
:104FC000CF93DF9300D000D0CDB7DEB79E838D8323
:104FD000DC014D905D906D907C90139714968D90B0
:104FE0009D90AD90BC90179718968D919D910D90C6
:104FF000BC91A02D89839A83AB83BC83A3019201CA
:10500000C301B2010F94F2086B017C01A501940168
:10501000C501B4010F94F2089B01AC01C701B601B0
:105020000F94300D6B017C0129813A814B815C81A9
:10503000CA01B9010F94F2089B01AC01C701B60186
:105040000F94300D0F942E109B01AC0160E070E0C6
:1050500080E89FE30F942A0E6B017C01AC019B0159
:10506000C301B2010F94F208ED81FE816083718368
:1050700082839383A7019601C501B4010F94F208BE
:10508000AD81BE8114966D937D938D939C931797FC
:10509000A701960169817A818B819C810F94F20826
:1050A000ED81FE81608771878287938726960FB690
:1050B000F894DEBF0FBECDBFDF91CF91FF90EF9090
:1050C000DF90CF90BF90AF909F908F907F906F9028
:1050D0005F904F900895CF92DF92EF92FF92FB0185
:1050E0006081718176276727762790E080E00F94B2
:1050F00091086B017C010E94CB2720E030E042E860
:1051000053E4C701B6010F94900F181634F4C12C64
:10511000D12C82E8E82E83E4F82EC701B6010F9463
:105120009C0ECB01FF90EF90DF90CF900C94BB27AB
:105130002F923F924F925F926F927F928F929F92A7
:10514000AF92BF92CF92DF92EF92FF920F931F9395
:10515000CF93DF93D62FC72FFC0180809180A28050
:10516000B380C501B40120E831E541E050E00F947F
:105170007F0CC9016DE671E00F94E60C6B017C01B8
:10518000C501B40120E13EE040E050E00F947F0C07
:10519000CA01B90128E130E040E050E00F947F0CF3
:1051A000362E272E062F172F8CE3482E512C612CDC
:1051B000712CC501B401A30192010F947F0CB62E8E
:1051C000A72ECA01B901A30192010F947F0CCB0154
:1051D000C114D10479F1AF92BF927F936F932F9254
:1051E0003F92FF92EF92DF92CF928DE292E19F93F6
:1051F0008F93CF93DF930F9423088DB79EB70E96AE
:105200000FB6F8949EBF0FBE8DBF8D2F9C2FDF91E0
:10521000CF911F910F91FF90EF90DF90CF90BF90B3
:10522000AF909F908F907F906F905F904F903F9046
:105230002F900895E114F104C9F0AF92BF927F93CB
:105240006F932F923F92FF92EF9281E392E19F93AF
:105250008F93CF93DF930F942308EDB7FEB73C965F
:105260000FB6F894FEBF0FBEEDBFCFCF012BB9F044
:10527000AF92BF927F936F932F923F9285E392E11B
:105280009F938F93CF93DF930F9423088DB79EB78F
:105290000A960FB6F8949EBF0FBE8DBFB6CF892B6E
:1052A000A9F0AF92BF927F936F9389E392E19F93AE
:1052B0008F93CF93DF930F942308EDB7FEB7389603
:1052C0000FB6F894FEBF0FBEEDBF9FCFAF92BF9257
:1052D0008DE392E19F938F93CF93DF930F942308F5
:1052E0000F900F900F900F900F900F908ECF0F9305
:1052F0001F938C0129E632E045E652E061E672E058
:105300008DE592E00E9462C11F910F910895CF93A5
:10531000DF93FC01208131812031314289F5FB018D
:10532000EC0160817181762767277627072E000CB4
:10533000880B990B0F9493082AE037ED43E25CE366
:105340000F94F2089B01AC016091690270916A02AE
:1053500080916B0290916C020F94300D6093690202
:1053600070936A0280936B0290936C028AEF92E0D2
:105370000E947729888199819093200580931F0549
:10538000DF91CF9108950F931F93CF93DF938C01FB
:10539000EB019091B3112091B411921305C00E94BA
:1053A0005B270E94D3D9F5CF8091B21134E0839F5F
:1053B000F0011124EB54FE4E11830083D383C2838A
:1053C0009F5F9093B3118F5F281739F08093B211CC
:1053D000DF91CF911F910F9108951092B211F8CFE4
:1053E000CF92DF92EF92FF920F931F93CF93DF93B1
:1053F000D82F662351F01092A20410929E041092AE
:105400009F041092A0041092A1040E94F2C3AB0169
:10541000BC0180919E0490919F04A091A004B09142
:10542000A1046A017B01C81AD90AEA0AFB0AD7015A
:10543000C601B7FD3AC0C091A204D7FD13C02D2FFD
:105440000D2E000C330B2C5F3F4F8C2F0C2E000CBD
:10545000990B281739074CF184EF91E0A0E0B0E0F8
:10546000CD1724F488EE93E0A0E0B0E0840F951F00
:10547000A61FB71F80939E0490939F04A093A0043F
:10548000B093A1040C2F017010E084E2809FB00162
:10549000819F700D701B112460597C4F82E390E056
:1054A0000E94C329CF5FC093A204DF91CF911F91C7
:1054B0000F91FF90EF90DF90CF9008950F931F937F
:1054C000CF93DF938C01DB01CD91DC91DC27CD27DD
:1054D000DC27FC01808191818236F0E39F0741F057
:1054E00082389043F9F0DF91CF911F910F91089589
:1054F000CE010E94BB278091E0109091E1108C17A3
:105500009D0741F0D8011796ED91FC91309711F06D
:10551000C8011995F80180819181909320058093AD
:105520001F05E1CF9C2F8D2FCC38D10514F09CE8BE
:1055300080E090934207809343070E9415D78091A3
:10554000420790914307DBCF0E944BD70C943B1D41
:10555000CF93DF93C091E504D091E604FB018081F5
:1055600091819827892798270097B1F18C0F9D1F6B
:105570009093E6048093E50497FF10C01092E60430
:105580001092E5048091E5049091E6048C179D0744
:1055900009F458C0DF91CF910C943B1D8091C51147
:1055A0009091C6118F3F980711F40E9477D3909382
:1055B000C6118093C511059797FF02C090E080E067
:1055C0002091E5043091E60482179307DCF690936E
:1055D000E6048093E504D6CF8091E41285FD32C0C5
:1055E0008091DA128823C1F081508093DA12E5E2CB
:1055F000F1E1882351F08150990B2BE1289FF001B4
:10560000299FF00D1124E453FE4E8BE1AAE0B1E195
:1056100001900D928A95E1F78091DA12811105C00F
:105620008091E41280628093E4128FEF9FEF909359
:10563000C6118093C5111092E6041092E5040E94F1
:105640003B1DA0CFDF91CF9108958091A30490914D
:10565000A404009731F04AE050E070E060E00D945F
:105660006C0660E070E0CB0108958091A3049091F6
:10567000A404009731F04AE050E070E060E00D943F
:105680003E0560E070E0CB0108950E94352BCB0110
:1056900008950F931F93CF938091A3049091A40436
:1056A0000097E9F0FC018F01C1912C2F2F7D81F033
:1056B000C53411F0C536B9F7F801108270E060E02A
:1056C0000F94E003F801C083CF911F910F910895CB
:1056D00070E060E0CF911F910F910D94E00360E0C6
:1056E00070E0CB01F1CFCF92DF92EF92FF926B018E
:1056F0007C0183E3C816D104E104F10470F082E375
:10570000C81AD108E108F10862E370E080E090E097
:105710000E94BFC30E94D3D9ECCFC701B6010E943B
:10572000BFC3FF90EF90DF90CF900C94D3D9CF936D
:10573000C091790421E0209379040E94732BC093D7
:105740007904CF910895CF92DF92EF92FF920F9359
:105750001F93CF93DF936B017A01EC01C458DC4FA8
:1057600028813CE0389F8001399F100D112427FFCC
:1057700024C0FB011182108288818F5F8883888119
:105780009801280F311D87FD3A95C9012091881194
:10579000F6012817190629F024F088818C300CF4C2
:1057A0003CC080819181049680349C4908F475C086
:1057B000F60180819181049672C088819801280F3A
:1057C000311D87FD3A95C9012091881128171906C6
:1057D00099F294F28881A801480F511D87FD5A95CE
:1057E000FA01EE0FFF1FE40FF51FE05CFE4E808113
:1057F00087FFC2CF8881F801E80FF11D87FDFA9578
:10580000CF01EE0FFF1FE80FF91FE05CFE4E808115
:1058100060E08F770E9455C2AFCF8081918128814F
:10582000A801420F511D27FD5A959A01FA01EE0F6A
:10583000FF1FE20FF31FE05CFE4E21813281820FD9
:10584000931FF7019183808388819801280F311D70
:1058500087FD3A95F901EE0FFF1FE20FF31FE05CA1
:10586000FE4E808187FF20C08881080F111D87FDB3
:105870001A95F801EE0FFF1FE00FF11FE05CFE4EDE
:10588000808161E08F77DF91CF911F910F91FF9021
:10589000EF90DF90CF900C9455C280E49CE9F70123
:1058A000918380838FEF8883DF91CF911F910F9138
:1058B000FF90EF90DF90CF900895CF92DF92EF921C
:1058C000FF920F931F93CF93DF93CDE3D0E108EDC9
:1058D00019E0C12CD12C7601C394699179918991F9
:1058E00099910F949108288939894A895B890F9485
:1058F000F2080F94A30EF801619371938193919331
:105900008F01C616D706E806F90610F46B017C0174
:10591000F0E1CD34DF0709F76FEF7FEFCB01A7018F
:1059200096010F947F0C2093E8093093E909409386
:10593000EA095093EB0923EF34E045E35FE360911C
:10594000D4097091D5098091D6099091D7090F9407
:10595000F2082AE136EF45E95EE30F942A0E6B0167
:105960007C0160913D1070913E1080913F109091AC
:1059700040100F9491089B01AC01C701B6010F9430
:10598000F2080F942E106093EC097093ED09809348
:10599000EE099093EF09DF91CF911F910F91FF9046
:1059A000EF90DF90CF9008950F931F93CF93DF93E5
:1059B00001E510E1C2EFD9E0F80121913191419167
:1059C00051918F0160E070E080E89FE30F942A0E10
:1059D0006993799389939993FAE0C230DF0761F76D
:1059E0000E949AADDF91CF911F910F910C945D2C85
:1059F000CF93DF93FC01208131812031364309F5BB
:105A0000FB01EC016081718176276727762790E0A2
:105A100080E00F94910820E030E040E251E40F94E0
:105A20002A0E60935D1070935E1080935F109093C8
:105A300060100E94D42C88819981909320058093D6
:105A40001F05DF91CF910895CF93DF93EC01FB0108
:105A50006081718176276727762790E080E00F9438
:105A6000910820E030E040E251E40F942A0E2881B2
:105A700039812430F6E33F0749F0283046E3340704
:105A8000D9F021153643A9F4E0E001C0E1E024E0BB
:105A9000E29FF0011124EF5AFF4E608371838283ED
:105AA00093830E94D42C88819981909320058093C0
:105AB0001F05DF91CF910895E2E0E9CF0F931F9387
:105AC000CF93DF938C01EB012091EA053091EB0538
:105AD0004091EC055091ED05FC016081718182815E
